:0400000081EF00F09C
:10000800AA40AA40AA40AA404000AA404000AA40EC
:10001800A740AA40AA40AA40AA40AA40AA40AA408B
:10002800AA40400040004000AA40AA40AA40AA4076
:10003800AA40AA40AA40AA40AA40AA40AA40AA4068
:10004800AA40AA40AA40AA4040004000AA40AA40AC
:10005800AA40AA40AA404000AA40AA40AA40AA40F2
:100068006440AA40AA40AA40AA40AA40AA40AA407E
:10007800AA40AA40AA40AA404000AA40AA40AA40D2
:10008800AA40AA40AA40AA40AA40AA40AA40AA4018
:10009800AA40AA40AA40AA404000AA404000400006
:1000A8008D40AA40AA40AA40AA40AA40AA40AA4015
:1000B800AA40AA40AA40AA40AA40AA40AA40AA40E8
:1000C800AA40AA40AA40AA40AA40AA40AA40AA40D8
:1000D800AA40AA40AA40AA40AA40AA40AA40AA40C8
:1000E8004000AA40AA40AA4040004000400040000A
:0E00F800AA40AA40AA40AA40FF0036EF81F0BD
:10FBFE00007100F8FFB4F8FFA45404FBFFC65404D0
:10FC0E00321A9432E3A42484B43005F8DFA4E48FCE
:10FC1E00739F738E739E738D739D738C739C738B96
:10FC2E00739B738A739A73897399738873987387A6
:10FC3E0073977386739673857395737373837393C8
:10FC4E0073827392738173917380739073F800B3A0
:10FC5E003F63F9043E67F93073933D6DF9023C71D1
:10FC6E00F9107393C5F90173F801CCF8007393730F
:10FC7E007C00737824F8CBA190B1F88DA1D1F80057
:10FC8E0054F8CAA591FC03B5F8A0A4F818A34554DE
:10FC9E001423833A9D94B2F8C3A4F8C1739173915F
:10FCAE00FC01B5F8F8A5F8FEA391B3F8E0B6F8009C
:10FCBE00A6D5E2227394738452E43002F81073F8DE
:10FCCE00C9A442734273F8BBA44254F8C5A482730C
:10FCDE009273309090FC01B3F8F8A3E2D3000000C9
:10FCEE000000000000000000000000000000000006
:10FCFE0000000000000000000000000000000000F6
:10FD0E0000000000000000000000000000000000E5
:10FD1E0000000000000000000000000000000000D5
:10FD2E00FC073337FC0A3388FC009FD5F8803883F4
:10FD3E00C8F800AFF880BFE38F1606F63B492606DB
:10FD4E0056BF3079000000000000000000000000E7
:10FD5E000000000000000000000000000000000095
:10FD6E000000000000000000000032438FFE3B390F
:10FD7E009FFF413B2FFF063337FEFEFEFEFC08FEC3
:10FD8E00AE8D7EAD9D7EBD8EFE3A8F30399EAE38E5
:10FD9E00D5453846389FADFB0A3ABEF85B30C09F5A
:10FDAE00F6F6F6F6FCF6C7FC07FFC6ADF81BC8F86C
:10FDBE000BAF1606F6F63BC28D26568FFF0BAF30F5
:10FDCE00DD000000000000000000000000008FFCBD
:10FDDE00FBAF3B9FFF1B329FF80033F59FFA0FFCE2
:10FDEE00F6C7FC07FFC6AD30C195B3F89CA3D30D83
:10FDFE00D30AD349D344D349D34FD354D32FD33477
:10FE0E0095FF01B3F89CA3D30DD30AD32AF800BDF6
:10FE1E00ADF83BA3D3FB2432CCFB05A8CEFB1E3A98
:10FE2E001CD3FB523A40F8B8AA92BAF828ADD33098
:10FE3E005CFB1F3A1CD33B44D33347FB203AC19D96
:10FE4E00BA8DAA8832ABF800ADBDD333598DA89DBB
:10FE5E00B89FFB2132FAFB013A6CD33061FB2D3A8D
:10FE6E00C1F89CA3D30A36C19ABFF8AEA3D38ABFFA
:10FE7E00F8AEA3D3D3204ABFF8AEA3D328883A92C4
:10FE8E0098320F8AFA0F3A9DD33BD30D3073F63367
:10FE9E00853083D33BA2D33BC18D5A1AD333A5FBF6
:10FEAE000D320FFB2132A2FB173AABD3FB0D3ABA40
:10FEBE003044F89CA3D30DD30AD33F300FD3FB525B
:10FECE00A8CEFB023A1CD333D5FB0D3AC19DB08DA3
:10FEDE00A0F89CA3D30A8832FEF8C1A195FF02B107
:10FEEE00E5700030FF30C1C4C4300F95FC01B592EF
:10FEFE00B3F8BFA2E2F8C15280ADFA0FFEF4A3032D
:10FF0E0073F8A8532303739253F0CE7B387AF8C05C
:10FF1E0073F0BD227273F8F873F0F6F8A273F8C599
:10FF2E00A30373F8F873F8C0A2F0B09D5212F0A0BC
:10FF3E008D521272B172A1606072B372A372B472FA
:10FF4E00A4606072B672A672B772A772B872A87207
:10FF5E00B972A972BA72AA72BB72AB72BC72AC726F
:10FF6E00BD72AD72BE72AE72BFF0AF309ED3FB4D9E
:10FF7E003A86BDADD33383FB0D3AF09AB38AA39D77
:10FF8E00BF8DAF933A968332AF239F3A9D8FC8921F
:10FF9E00B52F3A92983AA78832F44A5D1D2830A3BD
:10FFAE0098B388A3C81A1D23933AB4833AB4ED9834
:10FFBE003AC28832F40A732A2830BEF8C0A272CE32
:10FFCE0070387115C830B3F8CAA242B502A5F8C48C
:10FFDE00A202B200000000000000000000000000BD
:10FFEE000095FF01B595FF01B5000000000000303F
:02FFFE007C0085
:020000040001F9
:10000000080E0001B16F000E0401086F0969C7688E
:10001000000E106F1169C86800910181C6800093BD
:10002000BE92C692009B018BC68A3F0E0201056FED
:1000300004010099C698000E456FE50E446F400E0E
:10004000436F000E476F4691468B468F010E0201AB
:10005000D56FA00ED46FD189D18B0401009FC68EBD
:10006000070E0201766F0401009DBE8CC69C260E11
:100070000201076FD28F040100950185C6840097A5
:100080000187C686D68A550E596FAA0E596F5991A7
:10009000000E5F6F000E5E6F080E5D6F550E596F9C
:1000A000AA0E596F5981030E02013E6FD6809F90B0
:1000B000020E3F6FD682A490000E406FD694A89097
:1000C000D68EBE82CEA6FED761003CF306F5CEB634
:1000D000FED7CEB8FED7CEA8FED761003CF305F51B
:1000E000CEBA52D0000EC86E040E065CD8B00AD04C
:1000F000FF0E0524F66EFB0E0620F76E0800F5C411
:10010000C0F423D0800E065CD8A00DD0900E065C03
:10011000D8B009D0000E0524D96E950E0620DA6EEF
:10012000DF50C06E12D0050407E1E00E0618D8A417
:1001300003D0B7C4C0F409D0E00E06180510D8A447
:1001400003D0C7C2C0F401D0C068CEAAFED7C86829
:10015000B9D7CEB019D0800E065CD8A00DD0900EC5
:10016000065CD8B009D0000E0524D96E950E062085
:10017000DA6ED0C4DFF4A6D7E00E06180510D8A4B6
:0E018000A1D7D0C4C9F29ED7CEB49CD7E2D787
:100190006100D8F301F56100DCF302F56100E0F3E2
:1001A00003F56100D4F304F561003CF305F5CEBA24
:1001B00033D0000EC86E040E065CD8B00AD0FF0E15
:1001C0000524F66EFB0E0620F76E0800F5C4C0F499
:1001D00023D0800E065CD8A00DD0900E065CD8B05F
:1001E00009D0000E0524D96E950E0620DA6EDF5078
:1001F000C06E12D0050407E1E00E0618D8A403D0A3
:10020000B7C4C0F409D0E00E06180510D8A403D076
:10021000C7C2C0F401D0C068B490610010F4F5F416
:1002200061000CF4F8F4610008F4F7F4610004F4E0
:10023000F6F4110061003CF305F5800E065CD8A0D1
:100240000DD0900E065CD8B009D0000E0524D96EF2
:10025000950E0620DA6ED0C4DFF406D0E00E061844
:100260000510D8B4D0C4C9F2B890110005EE00F161
:1002700014EE00F0EE6AE550E150FCE1E250FAE1E4
:10028000066A056A0401080E5D6F000E5E6F000EBF
:100290005F6F000EF86E000100EF80F0AF90C8684D
:0A02A00061003CF306F511001100A7
:020000040020DA
:10000000FF0FFF0FFF0FFF0FFF0FFF0FFF0FFF0F80
:10001000FF0FFF0FFF0FFF0FFF0FFF0FFF0FFF0F70
:10002000FF0FFF0FFF0FFF0FFF0FFF0FFF0FFF0F60
:10003000FF0FFF0FFF0FFF0FFF0FFF0FFF0FFF0F50
:020000040030CA
:0A0000008CFFFFF79FFFFFFFFFFFDB
:00000001FF
